:100000000C942A000C9426020C9459020C943C0087
:100010000C943C000C943C000C943C000C943C0070
:100020000C943C000C943C000C943C000C943C0060
:100030000C943C000C943C000C943C000C943C0050
:100040000C943C000C943C000C948C020C943C00EE
:100050000C943C0011241FBECFE5D4E0DEBFCDBF21
:1000600010E0A0E6B0E001C01D92A736B107E1F7AD
:100070000E945D050C9402060C940000DF93CF9360
:10008000CDB7DEB72B970FB6F894DEBF0FBECDBF4E
:100090009A838983AFE5B0E0EFE5F0E080818F7768
:1000A0008C93E981FA8180818823F9F0E981FA81D2
:1000B00080818130D1F0E981FA8180818230A9F09C
:1000C000E981FA818181882381F0E981FA81818146
:1000D000813059F0E981FA818181823031F0E98102
:1000E000FA818181833009F027C1E981FA81808119
:1000F000282F30E03B872A878A859B8581309105B0
:1001000009F476C02A853B852230310509F4DBC02D
:100110008A859B85009709F005C1A1E3B0E0E1E382
:10012000F0E080818B7F8C93ABE5B0E0EBE5F0E015
:10013000808180648C93E981FA818181282F30E06D
:1001400039872887888599858130910521F128850F
:100150003985223031052CF488859985009761F026
:10016000E1C0288539852230310521F188859985BE
:100170008330910571F1D6C0A5E5B0E0E5E5F0E08A
:1001800080818E7F8C93A5E5B0E0E5E5F0E080818D
:100190008D7F8C93C7C0A5E5B0E0E5E5F0E08081F8
:1001A00081608C93A5E5B0E0E5E5F0E080818D7F8E
:1001B0008C93B8C0A5E5B0E0E5E5F0E080818E7FE6
:1001C0008C93A5E5B0E0E5E5F0E0808182608C935A
:1001D000A9C0A5E5B0E0E5E5F0E0808181608C9301
:1001E000A5E5B0E0E5E5F0E0808182608C939AC0FF
:1001F000A1E3B0E0E1E3F0E08081877F8C93ABE5A1
:10020000B0E0EBE5F0E0808180688C93E981FA81D1
:100210008181282F30E03F832E838E819F81813022
:10022000910521F12E813F81223031052CF48E8100
:100230009F81009761F076C02E813F812230310589
:1002400021F18E819F818330910571F16BC0A5E50D
:10025000B0E0E5E5F0E080818B7F8C93A5E5B0E030
:10026000E5E5F0E08081877F8C935CC0A5E5B0E098
:10027000E5E5F0E0808184608C93A5E5B0E0E5E5FC
:10028000F0E08081877F8C934DC0A5E5B0E0E5E587
:10029000F0E080818B7F8C93A5E5B0E0E5E5F0E0B0
:1002A000808188608C933EC0A5E5B0E0E5E5F0E094
:1002B000808184608C93A5E5B0E0E5E5F0E0808185
:1002C00088608C932FC0A7E3B0E0E7E3F0E0808183
:1002D000877F8C93ABE5B0E0EBE5F0E08081806256
:1002E0008C93E981FA818181282F30E03D832C8332
:1002F0008C819D818230910531F02C813D812330AC
:10030000310549F00FC0A4E5B0E0E4E5F0E08081FC
:100310008F7B8C9307C0A4E5B0E0E4E5F0E080813A
:1003200080648C93AFE5B0E0EFE5F0E08081806819
:100330008C9331E03B8301C01B828B812B960FB6DF
:10034000F894DEBF0FBECDBFCF91DF910895DF934C
:10035000CF9300D0CDB7DEB79A83898389819A8104
:1003600090936100809360000F900F90CF91DF9188
:100370000895DF93CF9300D0CDB7DEB79A838983FA
:1003800089819A8190936300809362000F900F900F
:10039000CF91DF910895DF93CF9300D0CDB7DEB733
:1003A0009A83898389819A81909365008093640000
:1003B0000F900F90CF91DF910895DF93CF9300D0EE
:1003C00000D0CDB7DEB79A838983AFE5B0E0EFE523
:1003D000F0E080818F778C93E981FA818081282FEA
:1003E00030E03C832B838B819C818130910589F0A7
:1003F0002B813C8122303105A1F08B819C810097BB
:10040000B9F4ABE5B0E0EBE5F0E080818F7B8C9355
:100410000FC0ABE5B0E0EBE5F0E080818F778C9327
:1004200007C0ABE5B0E0EBE5F0E080818F7D8C9319
:10043000AFE5B0E0EFE5F0E0808180688C930F904D
:100440000F900F900F90CF91DF9108951F920F9210
:100450000FB60F9211242F933F934F935F936F9397
:100460007F938F939F93AF93BF93EF93FF93DF930C
:10047000CF93CDB7DEB78091600090916100009777
:1004800029F0E0916000F09161000995CF91DF9132
:10049000FF91EF91BF91AF919F918F917F916F915C
:1004A0005F914F913F912F910F900FBE0F901F9032
:1004B00018951F920F920FB60F9211242F933F930E
:1004C0004F935F936F937F938F939F93AF93BF935C
:1004D000EF93FF93DF93CF93CDB7DEB780916200A8
:1004E00090916300009729F0E0916200F091630021
:1004F0000995CF91DF91FF91EF91BF91AF919F91BE
:100500008F917F916F915F914F913F912F910F90BC
:100510000FBE0F901F9018951F920F920FB60F925B
:1005200011242F933F934F935F936F937F938F93F8
:100530009F93AF93BF93EF93FF93DF93CF93CDB789
:10054000DEB78091640090916500009729F0E091FA
:100550006400F09165000995CF91DF91FF91EF91D3
:10056000BF91AF919F918F917F916F915F914F91CB
:100570003F912F910F900FBE0F901F901895DF9312
:10058000CF9300D000D00F92CDB7DEB78B836C83B2
:100590001A8219828B81803210F01D823FC0CE01F9
:1005A00003969E012F5F3F4FB9010E9470048C811A
:1005B0008823B9F4A981BA81E981FA818181482F20
:1005C0008B81282F30E081E090E0022E02C0880F5E
:1005D000991F0A94E2F78095842311968C931197C2
:1005E0001BC08C818130B1F4A981BA81E981FA8183
:1005F0008181482F8B81282F30E081E090E0022E0E
:1006000002C0880F991F0A94E2F7842B11968C93ED
:10061000119702C01D8202C081E08D838D810F90F1
:100620000F900F900F900F90CF91DF910895DF936F
:10063000CF9300D000D00F92CDB7DEB78B836C8301
:100640001A8219828B81803210F01D823FC0CE0148
:1006500003969E012F5F3F4FB9010E9470048C8169
:100660008823B9F4A981BA81E981FA818281482F6E
:100670008B81282F30E081E090E0022E02C0880FAD
:10068000991F0A94E2F78095842312968C9312970F
:100690001BC08C818130B1F4A981BA81E981FA81D2
:1006A0008281482F8B81282F30E081E090E0022E5C
:1006B00002C0880F991F0A94E2F7842B12968C933C
:1006C000129702C01D8202C081E08D838D810F9040
:1006D0000F900F900F900F90CF91DF910895DF93BF
:1006E000CF9300D000D000D0CDB7DEB78B837D8311
:1006F0006C831A8219828B81803210F01E8225C091
:10070000CE0103969E012F5F3F4FB9010E947004F6
:10071000E981FA818081282F30E08B81882F90E059
:10072000A90102C0559547958A95E2F7CA018170E3
:100730009070882329F0EC81FD8181E0808303C0E3
:10074000EC81FD81108251E05E838E8126960FB68A
:10075000F894DEBF0FBECDBFCF91DF910895DF9338
:10076000CF9300D000D0CDB7DEB79A8389836B8357
:1007700089819A818933910579F089819A818633BB
:10078000910551F089819A818333910529F08981FE
:100790009A818033910539F4E981FA818B818183D3
:1007A00081E08C8301C01C828C810F900F900F9090
:1007B0000F90CF91DF910895DF93CF9300D000D0B9
:1007C000CDB7DEB79A8389836B8389819A81893318
:1007D000910579F089819A818633910551F089815B
:1007E0009A818333910529F089819A81803391051B
:1007F00039F4E981FA818B81828381E08C8301C0A5
:100800001C828C810F900F900F900F90CF91DF91F1
:100810000895DF93CF9300D000D00F92CDB7DEB70D
:100820009A8389837C836B8389819A81893391053B
:1008300079F089819A818633910551F089819A8175
:100840008333910529F089819A818033910549F498
:10085000E981FA818081EB81FC81808381E08D8355
:1008600001C01D828D810F900F900F900F900F90FF
:10087000CF91DF910895DF93CF9300D000D0CDB713
:10088000DEB78B831A8219828B81803210F01C8232
:100890001FC0CE0103969E012F5F3F4FB9010E94FA
:1008A0007004A981BA81E981FA818281482F8B8104
:1008B000282F30E081E090E0022E02C0880F991FBF
:1008C0000A94E2F7842B12968C93129781E08C8322
:1008D0008C810F900F900F900F90CF91DF91089522
:1008E000DF93CF9300D000D0CDB7DEB79A83898352
:1008F0007C836B83E981FA818081883038F4EB81D5
:10090000FC8189E390E0918380834BC0E981FA8187
:100910008081883098F0E981FA818081803170F49B
:10092000E981FA8180818850E981FA818083EB81B5
:10093000FC8186E390E09183808333C0E981FA8172
:100940008081803198F0E981FA818081883170F46A
:10095000E981FA8180818051E981FA818083EB818C
:10096000FC8183E390E0918380831BC0E981FA815D
:1009700088E18083E981FA818081803270F4E981A5
:10098000FA8180818851E981FA818083EB81FC8141
:1009900080E390E09183808304C0EB81FC8111822D
:1009A00010820F900F900F900F90CF91DF910895CC
:1009B000DF93CF9300D000D0CDB7DEB78B838B8190
:1009C00061E00E94BF028A838B8160E00E9417036E
:1009D00089838A81813031F48981813019F481E001
:1009E0008C8301C01C828C810F900F900F900F9010
:1009F000CF91DF910895DF93CF9300D00F92CDB7C1
:100A0000DEB78A836B838B81813031F48A8161E028
:100A10000E941703898305C08A8160E00E94170342
:100A2000898389810F900F900F90CF91DF91089566
:100A3000DF93CF9300D000D00F92CDB7DEB78B837A
:100A40006C838B8160E00E94BF028A838A8181303F
:100A5000B9F48C81813031F48B8161E00E941703FD
:100A6000898305C08B8160E00E94170389838A8196
:100A7000813031F48981813019F481E08D8301C0A6
:100A80001D828D810F900F900F900F900F90CF913E
:100A9000DF910895DF93CF9300D0CDB7DEB78A837F
:100AA0008A819E012F5F3F4FB9010E946F038981A8
:100AB0000F900F90CF91DF910895DF93CF93CDB733
:100AC000DEB729970FB6F894DEBF0FBECDBF1D82EB
:100AD00081E08C8382E08B8383E08A8384E0898356
:100AE0001E8283E08F838C810E94D8048B810E94B8
:100AF000D8048A810E94D80489810E94D804CE013A
:100B000006960E943E0088EF95E00E94A701809122
:100B100066008130E1F78D818F5F8D838D81893013
:100B200009F41D828D81282F30E039872887888538
:100B3000998584309105A1F12885398525303105C5
:100B400084F4888599858230910501F1288539855D
:100B50002330310504F5888599858130910589F028
:100B600033C0288539852630310521F1888599855E
:100B700086309105D4F02885398527303105F9F084
:100B800023C08C8161E00E94FB042FC08B8161E057
:100B90000E94FB042AC08A8161E00E94FB0425C0F8
:100BA000898161E00E94FB0420C08C8160E00E948A
:100BB000FB041BC08B8160E00E94FB0416C08A818D
:100BC00060E00E94FB0411C08C8160E00E94FB0485
:100BD0008B8160E00E94FB048A8160E00E94FB043C
:100BE000898160E00E94FB041D82109266008FCF15
:100BF000DF93CF93CDB7DEB781E080936600CF91CE
:080C0000DF910895F894FFCF85
:00000001FF
