:100000000C942A000C942F0D0C94620D0C94470054
:100010000C9447000C9447000C9447000C94470044
:100020000C9447000C9447000C9447000C94470034
:100030000C9447000C9447000C9447000C94470024
:100040000C9447000C9447000C94950D0C944700B9
:100050000C94470011241FBECFE5D4E0DEBFCDBF16
:1000600011E0A0E6B0E0EAE2F5E202C005900D92F0
:10007000AA36B107D9F711E0AAE6B1E001C01D9296
:10008000A237B107E1F70E9466100C9493120C940A
:100090000000EF92FF920F931F937B018C0120E0F1
:1000A00030E040E05FE40E94C50388238CF0C80183
:1000B000B70120E030E040E05FE40E94C1010E940F
:1000C00083049B01AC01205030404040504806C0A2
:1000D000C801B7010E9483049B01AC01B901CA01A8
:1000E0001F910F91FF90EF900895A0E0B0E0EBE733
:1000F000F0E00C945C12DC012B01FA019C9192302F
:1001000008F439C1EB018881823008F433C194309E
:1001100069F4843009F02FC111969C91119789815F
:10012000981709F428C1A0E6B0E025C1843009F48D
:1001300021C18230A9F4923009F01DC19A01AD01AC
:1001400088E0EA010990AE01E90109929E0181501F
:10015000C1F7E201898111969C918923818308C1AD
:10016000923009F407C112962D903C901397EB0141
:100170008A819B811496AD90BD90CD90DC901797AD
:10018000EC80FD800E811F819101281B390BB90184
:1001900037FF04C066277727621B730B6032710537
:1001A0000CF061C0121613066CF537014801062EDB
:1001B00004C096948794779467940A94D2F721E0C8
:1001C00030E040E050E004C0220F331F441F551FB1
:1001D0006A95D2F721503040404050402E213F21B7
:1001E00040235123211531054105510521F021E01E
:1001F00030E040E050E079018A01E628F72808293C
:1002000019293CC0232BD1F1260E371E350146019A
:10021000062E04C096948794779467940A94D2F734
:1002200021E030E040E050E004C0220F331F441FC3
:10023000551F6A95D2F721503040404050402A2146
:100240003B214C215D21211531054105510521F04E
:1002500021E030E040E050E059016A01A628B728CB
:10026000C828D9280BC0821593052CF01C01AA249C
:10027000BB24650103C0EE24FF24870111969C91E5
:10028000D20111968C91981709F445C0992339F041
:10029000A80197012A193B094C095D0906C0A6016E
:1002A00095012E193F09400B510B57FD08C01182D3
:1002B0003382228224833583468357831DC081E0A5
:1002C00081833382228288279927DC01821B930B4A
:1002D000A40BB50B84839583A683B7830DC0220F2F
:1002E000331F441F551F24833583468357838281E0
:1002F000938101979383828324813581468157813D
:10030000DA01C9010197A109B1098F5F9F4FAF4F72
:10031000BF4328F30BC0918333822282EA0CFB1C7B
:100320000C1D1D1DE482F5820683178383E0808304
:10033000248135814681578157FF1AC0C901AA27F8
:1003400097FDA095BA2F81709070A070B0705695EF
:10035000479537952795822B932BA42BB52B848318
:100360009583A683B7838281938101969383828349
:10037000DF0101C0D201CD01CDB7DEB7E2E10C94BF
:100380007812A0E2B0E0E7ECF1E00C946812698327
:100390007A838B839C832D833E834F835887E9E048
:1003A000EE2EF12CEC0EFD1ECE010196B7010E943F
:1003B00074068E010F5E1F4FCE010596B8010E9494
:1003C00074068A8991E089278A8BC701B801AE013A
:1003D000475E5F4F0E9475000E949F05A096E6E071
:1003E0000C948412A0E2B0E0E8EFF1E00C94681203
:1003F00069837A838B839C832D833E834F835887C5
:10040000F9E0EF2EF12CEC0EFD1ECE010196B701A6
:100410000E9474068E010F5E1F4FCE010596B80133
:100420000E947406C701B801AE01475E5F4F0E948B
:1004300075000E949F05A096E6E00C948412A0E24D
:10044000B0E0E5E2F2E00C945C1269837A838B837E
:100450009C832D833E834F835887CE010196BE0136
:10046000675F7F4F0E947406CE010596BE016F5EE6
:100470007F4F0E9474069985923088F08989823076
:10048000C8F0943019F4823051F404C0843029F457
:10049000923081F480E690E0C6C0923049F420E0CA
:1004A0009A858A89981321E02A87CE010996BBC0D4
:1004B000823049F420E09A858A89981321E02A8BBA
:1004C000CE014196B0C02D843E844F8458886D88FB
:1004D0007E888F88988CEE24FF248701AA24BB2471
:1004E000650140E050E060E070E0E0E0F0E0C10174
:1004F00081709070892BE9F0E60CF71C081D191D1E
:100500009A01AB012A0D3B1D4C1D5D1D80E090E062
:10051000A0E0B0E0E614F7040805190520F481E036
:1005200090E0A0E0B0E0BA01A901480F591F6A1F8E
:100530007B1FAA0CBB1CCC1CDD1C97FE08C081E0F5
:1005400090E0A0E0B0E0A82AB92ACA2ADB2A3196B6
:10055000E032F10549F0660C771C881C991C569412
:10056000479437942794C3CFFA85EA892B893C892D
:100570008B859C85280F391F2E5F3F4F17C0CA01FE
:1005800081709070892B61F016950795F794E79428
:1005900080E090E0A0E0B0E8E82AF92A0A2B1B2BC3
:1005A00076956795579547952F5F3F4F77FDE7CF36
:1005B0000CC0440F551F661F771F17FD4160EE0CDE
:1005C000FF1C001F111F21503040403090E05907A0
:1005D00090E0690790E4790760F32B8F3C8FDB0193
:1005E000CA018F779070A070B07080349105A1051A
:1005F000B10561F447FD0AC0E114F10401051105DC
:1006000029F0405C5F4F6F4F7F4F40781A8EFE1786
:1006100011F081E08A8F4D8F5E8F6F8F78A383E01A
:10062000898FCE0149960E949F05A096E2E10C9425
:100630007812A8E1B0E0EFE1F3E00C946412698372
:100640007A838B839C832D833E834F835887B9E0C5
:10065000EB2EF12CEC0EFD1ECE010196B7010E948F
:1006600074068E010F5E1F4FCE010596B8010E94E1
:1006700074062985223008F47EC03989323010F49E
:10068000B8017CC08A859A8989278A87243011F02D
:10069000223031F4231709F06EC060E670E06EC0BE
:1006A000343039F41D861E861F86188A1C861B86E8
:1006B00004C0323021F484E08987B7015FC02B8504
:1006C0003C858B899C89281B390B3C872B87ED84C3
:1006D000FE840F851889AD88BE88CF88D88CEA142F
:1006E000FB040C051D0540F4EE0CFF1C001F111F40
:1006F000215030403C872B8720E030E040E050E044
:1007000080E090E0A0E0B0E460E070E0EA14FB0478
:100710000C051D0540F0282B392B4A2B5B2BEA18C2
:10072000FB080C091D09B695A79597958795EE0CC2
:10073000FF1C001F111F6F5F7F4F6F31710531F775
:10074000DA01C9018F779070A070B0708034910584
:10075000A105B10561F427FD0AC0E114F10401050A
:10076000110529F0205C3F4F4F4F5F4F20782D87B8
:100770003E874F87588BBE01675F7F4FCB010E943A
:100780009F056896EAE00C948012A8E1B0E0EBECDB
:10079000F3E00C94681269837A838B839C832D83A6
:1007A0003E834F83588789E0E82EF12CEC0EFD1E26
:1007B000CE010196B7010E9474068E010F5E1F4F95
:1007C000CE010596B8010E9474068985823040F0FA
:1007D0008989823028F0C701B8010E94EC0601C067
:1007E0008FEF6896E6E00C948412A8E1B0E0EBEF9E
:1007F000F3E00C94681269837A838B839C832D8346
:100800003E834F83588789E0E82EF12CEC0EFD1EC5
:10081000CE010196B7010E9474068E010F5E1F4F34
:10082000CE010596B8010E9474068985823040F099
:100830008989823028F0C701B8010E94EC0601C006
:1008400081E06896E6E00C948412A8E0B0E0EBE268
:10085000F4E00C9465129B01AC0183E08983DA011A
:10086000C9018827B7FD83959927AA27BB27B82EEA
:10087000211531054105510519F482E089833AC0FB
:100880008823A9F0203080E0380780E0480780E81E
:10089000580729F460E070E080E09FEC30C0EE245F
:1008A000FF248701E21AF30A040B150B02C0790139
:1008B0008A018EE1C82ED12CDC82CB82ED82FE82B1
:1008C0000F831887C801B7010E94500501971816B9
:1008D000190684F4082E04C0EE0CFF1C001F111F23
:1008E0000A94D2F7ED82FE820F831887C81AD90ABC
:1008F000DC82CB82BA82CE0101960E949F052896A7
:10090000E9E00C948112ACE0B0E0E9E8F4E00C948A
:100910006C1269837A838B839C83CE010196BE011E
:100920006B5F7F4F0E9474068D81823061F182304F
:1009300050F1843021F48E81882351F12EC02F8113
:10094000388537FD20C06E812F3131051CF06623BC
:10095000F9F023C08EE190E0821B930B29853A8544
:100960004B855C8504C056954795379527958A95A4
:10097000D2F76623B1F050954095309521953F4FC1
:100980004F4F5F4F0EC020E030E040E050E009C024
:100990002FEF3FEF4FEF5FE704C020E030E040E093
:1009A00050E8B901CA012C96E2E00C948812A8E044
:1009B000B0E0EDEDF4E00C9464127B018C01611564
:1009C00071058105910519F482E0898360C083E097
:1009D00089838EE1C82ED12CDC82CB82ED82FE820F
:1009E0000F831887C801B7010E945005FC01319799
:1009F000F7FF3BC0222733272E1B3F0B570168010F
:100A0000022E04C0D694C794B794A7940A94D2F740
:100A100040E050E060E070E081E090E0A0E0B0E015
:100A200004C0880F991FAA1FBB1F2A95D2F70197F0
:100A3000A109B1098E219F21A023B1230097A1050F
:100A4000B10521F041E050E060E070E04A295B2907
:100A50006C297D294D835E836F8378878EE190E0DA
:100A60008E1B9F0B9C838B8312C0309781F00E2EC0
:100A700004C0EE0CFF1C001F111F0A94D2F7ED8278
:100A8000FE820F831887CE1ADF0ADC82CB821A829D
:100A9000CE0101960E949F052896EAE00C948012F0
:100AA000EF92FF920F931F937B018C0180E0E81679
:100AB00080E0F80681E0080780E0180788F48FEFEF
:100AC000E816F1040105110531F028F088E090E006
:100AD000A0E0B0E017C080E090E0A0E0B0E012C07D
:100AE00080E0E81680E0F80680E0080781E018075B
:100AF00028F088E190E0A0E0B0E004C080E190E060
:100B0000A0E0B0E020E230E040E050E0281B390BEC
:100B10004A0B5B0B04C016950795F794E7948A95EA
:100B2000D2F7F701E859FF4F8081281B31094109AD
:100B30005109C9011F910F91FF90EF900895DF9225
:100B4000EF92FF920F931F93FC01E480F5800681E2
:100B50001781D1808081823048F480E090E0A0E16C
:100B6000B0E0E82AF92A0A2B1B2BA5C0843009F42F
:100B70009FC0823021F4EE24FF24870105C0E114D8
:100B8000F1040105110519F4E0E0F0E096C062817E
:100B900073819FEF623879070CF05BC022E83FEF6A
:100BA000261B370B2A3131052CF020E030E040E0E5
:100BB00050E02AC0B801A701022E04C076956795BF
:100BC000579547950A94D2F781E090E0A0E0B0E015
:100BD00004C0880F991FAA1FBB1F2A95D2F701973F
:100BE000A109B1098E219F21A023B1230097A1055E
:100BF000B10521F081E090E0A0E0B0E09A01AB0106
:100C0000282B392B4A2B5B2BDA01C9018F77907087
:100C1000A070B07080349105A105B10539F427FFAB
:100C200009C0205C3F4F4F4F5F4F04C0215C3F4FD6
:100C30004F4F5F4FE0E0F0E02030A0E03A07A0E047
:100C40004A07A0E45A0710F0E1E0F0E079018A01D8
:100C500027C06038710564F5FB01E158FF4FD801EA
:100C6000C7018F779070A070B07080349105A10596
:100C7000B10539F4E7FE0DC080E490E0A0E0B0E0FB
:100C800004C08FE390E0A0E0B0E0E80EF91E0A1F78
:100C90001B1F17FF05C016950795F794E79431962B
:100CA00087E016950795F794E7948A95D1F705C0E4
:100CB000EE24FF248701EFEFF0E06E2F67956627A3
:100CC0006795902F9F77D794DD24D7948E2F8695A4
:100CD000492F462B582F5D29B701CA011F910F914B
:100CE000FF90EF90DF900895FC01DB01408151817E
:100CF0002281622F6F7770E0221F2227221F9381AB
:100D0000892F880F822B282F30E0991F9927991F50
:100D100011969C93119721153105A9F5411551059F
:100D20006105710511F482E037C082E89FEF1396E8
:100D30009C938E9312979A01AB0167E0220F331FA9
:100D4000441F551F6A95D1F783E08C930DC0220F85
:100D5000331F441F551F12968D919C911397019735
:100D600013969C938E931297203080E0380780E092
:100D7000480780E4580758F314962D933D934D93FC
:100D80005C93179708952F3F310579F4411551056C
:100D90006105710519F484E08C93089564FF03C024
:100DA00081E08C9312C01C9210C02F5730401396D4
:100DB0003C932E93129783E08C9387E0440F551F4A
:100DC000661F771F8A95D1F7706414964D935D93D3
:100DD0006D937C93179708951F93DC01FB019C9101
:100DE000923008F447C08081823008F443C09430C8
:100DF00051F411961C91843099F58181682F70E02F
:100E0000611B71093FC0843021F0923031F482308F
:100E1000B9F18181882389F12DC011961C91119718
:100E20008230F1F081811817D9F412962D913C91FE
:100E30001397828193818217930794F028173907BB
:100E4000BCF014968D919D910D90BC91A02D2481A4
:100E5000358146815781281739074A075B0718F4FF
:100E6000112341F00AC082179307A407B50740F485
:100E7000112319F061E070E005C06FEF7FEF02C051
:100E800060E070E0CB011F910895DF93CF9300D015
:100E900000D0CDB7DEB79A838983E981FA8180815A
:100EA0009181A281B381BC01CD012CEE31E143E8F7
:100EB00053E40E94F50318160CF45AC1E981FA8133
:100EC00080819181A281B381BC01CD0128EB3EE1FB
:100ED00045E85EE30E94F50318163CF0E981FA81CB
:100EE00081E090E09583848360C0E981FA8180810C
:100EF0009181A281B381BC01CD0123E333E343E0BF
:100F000050E40E94F50318163CF0E981FA8188E06C
:100F100090E09583848349C0E981FA818081918141
:100F2000A281B381BC01CD012DE33AE043E851E455
:100F30000E94F50318163CF0E981FA8180E490E004
:100F40009583848332C0E981FA8180819181A28175
:100F5000B381BC01CD012BE734E143E852E40E94A8
:100F6000F50318163CF0E981FA8180E091E0958361
:100F700084831BC0E981FA8180819181A281B38140
:100F8000BC01CD012CEE31E143E853E40E94F503AE
:100F900018163CF0E981FA8180E094E0958384831F
:100FA00004C0E981FA8115821482E981FA81848181
:100FB00095819C838B838B819C818034910509F47E
:100FC00063C08B819C818134910558F48B819C8115
:100FD00081309105A9F08B819C818830910591F138
:100FE000B9C08B819C8121E08030920709F46EC0EA
:100FF0008B819C8124E08030920709F489C0AAC0CB
:10100000E981FA81208131814281538168EB7EE15F
:1010100085E89EE30E94C101DC01CB01BC01CD014A
:101020002FE632E143E85AE30E941903DC01CB01C9
:10103000BC01CD010E944900DC01CB01E981FA81AC
:1010400086838BC0E981FA8120813181428153817D
:1010500063E373E383E090E40E94C101DC01CB0110
:10106000BC01CD012FE632E143E05CE30E941903AD
:10107000DC01CB01BC01CD010E944900DC01CB01A8
:10108000E981FA81868369C0E981FA812081318111
:10109000428153816DE37AE083E891E40E94C101CB
:1010A000DC01CB01BC01CD012FE632E143E85DE379
:1010B0000E941903DC01CB01BC01CD010E94490053
:1010C000DC01CB01E981FA81868347C0E981FA819D
:1010D00020813181428153816BE774E183E892E49E
:1010E0000E94C101DC01CB01BC01CD012FE632E140
:1010F00043E85EE30E941903DC01CB01BC01CD0192
:101100000E944900DC01CB01E981FA81868325C078
:10111000E981FA8120813181428153816CEE71E154
:1011200083E893E40E94C101DC01CB01BC01CD0145
:101130002FE632E143E85FE30E941903DC01CB01B3
:10114000BC01CD010E944900DC01CB01E981FA819B
:10115000868303C0E981FA811682E981FA8180E001
:1011600090E0A0E0B0E087839087A187B2871FC09E
:10117000E981FA8180E094E095838483E981FA81B2
:1011800080819181A281B381BC01CD012CEE31E13E
:1011900043E853E40E941903DC01CB01E981FA81A1
:1011A00087839087A187B287E981FA8116820F90A1
:1011B0000F900F900F90CF91DF910895EF92FF92D3
:1011C0000F931F93DF93CF93CDB7DEB729970FB659
:1011D000F894DEBF0FBECDBF9D838C83EC81FD8173
:1011E00087819085A185B285BC01CD010E9449000F
:1011F000DC01CB018B83EC81FD81E780F0840185EC
:1012000012858B81882F90E0AA2797FDA095BA2F91
:10121000BC01CD010E9425049B01AC01C801B701AE
:101220000E94C101DC01CB01BC01CD012CEE31E1FA
:1012300043E853E40E941F02DC01CB01BC01CD0155
:101240000E944900DC01CB018A838B818983A2E55E
:10125000B0E0EC81FD8186818C938981882309F03F
:101260004EC0EC81FD818481958199878887E885CE
:10127000F985E034F10539F1888599858134910546
:1012800058F4E885F985E130F10599F0888599856C
:101290008830910599F026C0E885F98521E0E03095
:1012A000F207B1F088859985E4E080309E07A9F0C7
:1012B00019C0E3E5F0E081E8808317C0E3E5F0E0E2
:1012C00082E8808312C0E3E5F0E083E880830DC00C
:1012D000E3E5F0E084E8808308C0E3E5F0E085E83A
:1012E000808303C0E3E5F0E01082E8E5F0E0808170
:1012F000882F90E0817090700097B9F3DAC1E3E530
:10130000F0E085E8808313C0E8E5F0E08081882F75
:1013100090E0817090700097B9F389818150898342
:10132000A8E5B0E0E8E5F0E0808181608C938981F8
:10133000882351F78A81882309F49AC08A81882FEB
:1013400090E0AA2797FDA095BA2FBC01CD010E947D
:101350002504DC01CB01BC01CD0128EB3EE145E8D1
:101360005EE30E94F50318163CF0EC81FD8181E0FC
:1013700090E0958384837CC08A81882F90E0AA279F
:1013800097FDA095BA2FBC01CD010E942504DC0178
:10139000CB01BC01CD0123E333E343E050E40E94E1
:1013A000F50318163CF0EC81FD8188E090E0958310
:1013B00084835EC08A81882F90E0AA2797FDA0953C
:1013C000BA2FBC01CD010E942504DC01CB01BC0178
:1013D000CD012DE33AE043E851E40E94F5031816ED
:1013E0003CF0EC81FD8180E490E09583848340C0F3
:1013F0008A81882F90E0AA2797FDA095BA2FBC017B
:10140000CD010E942504DC01CB01BC01CD012BE7FD
:1014100034E143E852E40E94F50318163CF0EC81F5
:10142000FD8180E091E09583848322C08A81882FAA
:1014300090E0AA2797FDA095BA2FBC01CD010E948C
:101440002504DC01CB01BC01CD012CEE31E143E8E8
:1014500053E40E94F50318163CF0EC81FD8180E016
:1014600094E09583848304C0EC81FD81158214820D
:10147000EC81FD81848195819F838E83EE81FF8144
:10148000E034F10509F47CC08E819F81813491059F
:1014900060F4EE81FF81E130F105B1F08E819F8132
:1014A0008830910509F43EC0F5C0EE81FF8121E04E
:1014B000E030F20709F492C08E819F81E4E0803031
:1014C0009E0709F4B9C0E6C002E510E08A81882FC2
:1014D00090E0AA2797FDA095BA2FBC01CD010E94EC
:1014E00025049B01AC0168EB7EE185E89EE30E9448
:1014F000C101DC01CB01BC01CD012FE632E143E8A3
:101500005AE30E941903DC01CB01BC01CD010E940A
:101510004900DC01CB01F8018083E3E5F0E081E8DC
:101520008083BEC002E510E08A81882F90E0AA2760
:1015300097FDA095BA2FBC01CD010E9425049B0107
:10154000AC0163E373E383E090E40E94C101DC013A
:10155000CB01BC01CD012FE632E143E05CE30E9408
:101560001903DC01CB01BC01CD010E944900DC0163
:10157000CB01F8018083E3E5F0E082E8808390C04E
:1015800002E510E08A81882F90E0AA2797FDA095B8
:10159000BA2FBC01CD010E9425049B01AC016DE373
:1015A0007AE083E891E40E94C101DC01CB01BC0137
:1015B000CD012FE632E143E85DE30E941903DC012F
:1015C000CB01BC01CD010E944900DC01CB01F80137
:1015D0008083E3E5F0E083E8808362C002E510E009
:1015E0008A81882F90E0AA2797FDA095BA2FBC0189
:1015F000CD010E9425049B01AC016BE774E183E8F7
:1016000092E40E94C101DC01CB01BC01CD012FE6B7
:1016100032E143E85EE30E941903DC01CB01BC0127
:10162000CD010E944900DC01CB01F8018083E3E594
:10163000F0E084E8808334C002E510E08A81882FDE
:1016400090E0AA2797FDA095BA2FBC01CD010E947A
:1016500025049B01AC016CEE71E183E893E40E94E8
:10166000C101DC01CB01BC01CD012FE632E143E831
:101670005FE30E941903DC01CB01BC01CD010E9494
:101680004900DC01CB01F8018083E3E5F0E085E867
:10169000808306C0E2E5F0E01082E3E5F0E010822E
:1016A000E8E5F0E08081882F90E0817090700097ED
:1016B000B9F3A8E5B0E0E8E5F0E0808181608C93C3
:1016C000E3E5F0E0108229960FB6F894DEBF0FBE76
:1016D000CDBFCF91DF911F910F91FF90EF900895B3
:1016E000DF93CF93CDB7DEB72A970FB6F894DEBF5E
:1016F0000FBECDBF9A838983AFE5B0E0EFE5F0E0A0
:1017000080818F778C93E981FA818081282F30E066
:101710003A87298789859A858130910509F476C0B1
:1017200029853A852230310509F4DBC089859A85FF
:10173000009709F005C1A1E3B0E0E1E3F0E08081AA
:101740008B7F8C93ABE5B0E0EBE5F0E080818064CB
:101750008C93E981FA818181282F30E038872F83AB
:101760008F8198858130910521F12F813885223034
:1017700031052CF48F819885009761F0E1C02F81AD
:1017800038852230310521F18F819885833091058C
:1017900071F1D6C0A5E5B0E0E5E5F0E080818E7F8F
:1017A0008C93A5E5B0E0E5E5F0E080818D7F8C933A
:1017B000C7C0A5E5B0E0E5E5F0E0808181608C93ED
:1017C000A5E5B0E0E5E5F0E080818D7F8C93B8C0C1
:1017D000A5E5B0E0E5E5F0E080818E7F8C93A5E59E
:1017E000B0E0E5E5F0E0808182608C93A9C0A5E5DA
:1017F000B0E0E5E5F0E0808181608C93A5E5B0E0A4
:10180000E5E5F0E0808182608C939AC0A1E3B0E0CE
:10181000E1E3F0E08081877F8C93ABE5B0E0EBE51E
:10182000F0E0808180688C93E981FA818181282FA2
:1018300030E03E832D838D819E818130910521F1A1
:101840002D813E81223031052CF48D819E810097BF
:1018500061F076C02D813E812230310521F18D81EC
:101860009E818330910571F16BC0A5E5B0E0E5E59F
:10187000F0E080818B7F8C93A5E5B0E0E5E5F0E0BA
:101880008081877F8C935CC0A5E5B0E0E5E5F0E062
:10189000808184608C93A5E5B0E0E5E5F0E080818F
:1018A000877F8C934DC0A5E5B0E0E5E5F0E0808151
:1018B0008B7F8C93A5E5B0E0E5E5F0E08081886062
:1018C0008C933EC0A5E5B0E0E5E5F0E08081846062
:1018D0008C93A5E5B0E0E5E5F0E0808188608C932D
:1018E0002FC0A7E3B0E0E7E3F0E08081877F8C932F
:1018F000ABE5B0E0EBE5F0E0808180628C93E981BC
:10190000FA818181282F30E03C832B838B819C815D
:101910008230910531F02B813C812330310549F033
:101920000FC0A4E5B0E0E4E5F0E080818F7B8C930C
:1019300007C0A4E5B0E0E4E5F0E0808180648C932A
:10194000AFE5B0E0EFE5F0E0808180688C932A9607
:101950000FB6F894DEBF0FBECDBFCF91DF910895D3
:10196000DF93CF9300D0CDB7DEB79A838983898187
:101970009A8190936B0180936A010F900F90CF91A1
:10198000DF910895DF93CF9300D0CDB7DEB79A8370
:10199000898389819A8190936D0180936C010F9066
:1019A0000F90CF91DF910895DF93CF9300D0CDB703
:1019B000DEB79A83898389819A8190936F0180939E
:1019C0006E010F900F90CF91DF910895DF93CF9329
:1019D00000D000D0CDB7DEB79A838983AFE5B0E001
:1019E000EFE5F0E080818F778C93E981FA81808147
:1019F000282F30E03C832B838B819C8181309105A3
:101A000089F02B813C8122303105A1F08B819C81B2
:101A10000097B9F4ABE5B0E0EBE5F0E080818F7BB7
:101A20008C930FC0ABE5B0E0EBE5F0E080818F7701
:101A30008C9307C0ABE5B0E0EBE5F0E080818F7DF3
:101A40008C93AFE5B0E0EFE5F0E0808180688C93A7
:101A50000F900F900F900F90CF91DF9108951F92EC
:101A60000F920FB60F9211242F933F934F935F93D2
:101A70006F937F938F939F93AF93BF93EF93FF9356
:101A8000DF93CF93CDB7DEB780916A0190916B0160
:101A9000009729F0E0916A01F0916B010995CF91CF
:101AA000DF91FF91EF91BF91AF919F918F917F91C6
:101AB0006F915F914F913F912F910F900FBE0F90BB
:101AC0001F9018951F920F920FB60F9211242F930B
:101AD0003F934F935F936F937F938F939F93AF93B6
:101AE000BF93EF93FF93DF93CF93CDB7DEB7809192
:101AF0006C0190916D01009729F0E0916C01F091DB
:101B00006D010995CF91DF91FF91EF91BF91AF9159
:101B10009F918F917F916F915F914F913F912F9105
:101B20000F900FBE0F901F9018951F920F920FB637
:101B30000F9211242F933F934F935F936F937F9353
:101B40008F939F93AF93BF93EF93FF93DF93CF93C5
:101B5000CDB7DEB780916E0190916F01009729F0AB
:101B6000E0916E01F0916F010995CF91DF91FF91A6
:101B7000EF91BF91AF919F918F917F916F915F9105
:101B80004F913F912F910F900FBE0F901F9018957E
:101B9000DF93CF9300D000D00F92CDB7DEB78B8309
:101BA0006C831A8219828B81803210F01D823FC0B3
:101BB000CE0103969E012F5F3F4FB9010E94790F1E
:101BC0008C818823B9F4A981BA81E981FA81818164
:101BD000482F8B81282F30E081E090E0022E02C058
:101BE000880F991F0A94E2F78095842311968C93AD
:101BF00011971BC08C818130B1F4A981BA81E98130
:101C0000FA818181482F8B81282F30E081E090E09C
:101C1000022E02C0880F991F0A94E2F7842B1196B6
:101C20008C93119702C01D8202C081E08D838D814B
:101C30000F900F900F900F900F90CF91DF9108951C
:101C4000DF93CF9300D000D00F92CDB7DEB78B8358
:101C50006C831A8219828B81803210F01D823FC002
:101C6000CE0103969E012F5F3F4FB9010E94790F6D
:101C70008C818823B9F4A981BA81E981FA818281B2
:101C8000482F8B81282F30E081E090E0022E02C0A7
:101C9000880F991F0A94E2F78095842312968C93FB
:101CA00012971BC08C818130B1F4A981BA81E9817E
:101CB000FA818281482F8B81282F30E081E090E0EB
:101CC000022E02C0880F991F0A94E2F7842B129605
:101CD0008C93129702C01D8202C081E08D838D819A
:101CE0000F900F900F900F900F90CF91DF9108956C
:101CF000DF93CF9300D000D000D0CDB7DEB78B8379
:101D00007D836C831A8219828B81803210F01E824F
:101D100025C0CE0103969E012F5F3F4FB9010E945F
:101D2000790FE981FA818081282F30E08B81882F1B
:101D300090E0A90102C0559547958A95E2F7CA013E
:101D400081709070882329F0EC81FD8181E080838F
:101D500003C0EC81FD81108251E05E838E81269666
:101D60000FB6F894DEBF0FBECDBFCF91DF910895BF
:101D7000DF93CF9300D000D0CDB7DEB79A838983AD
:101D80006B8389819A818933910579F089819A8160
:101D90008633910551F089819A818333910529F029
:101DA00089819A818033910539F4E981FA818B81A7
:101DB000818381E08C8301C01C828C810F900F9005
:101DC0000F900F90CF91DF910895DF93CF9300D0C4
:101DD00000D0CDB7DEB79A8389836B8389819A81DE
:101DE0008933910579F089819A818633910551F083
:101DF00089819A818333910529F089819A81803381
:101E0000910539F4E981FA818B81828381E08C83A9
:101E100001C01C828C810F900F900F900F90CF917A
:101E2000DF910895DF93CF9300D000D00F92CDB70C
:101E3000DEB79A8389837C836B8389819A81893316
:101E4000910579F089819A818633910551F08981D4
:101E50009A818333910529F089819A818033910594
:101E600049F4E981FA818081EB81FC81808381E002
:101E70008D8301C01D828D810F900F900F900F9068
:101E80000F90CF91DF910895DF93CF9300D000D0D2
:101E9000CDB7DEB78B831A8219828B81803210F026
:101EA0001C821FC0CE0103969E012F5F3F4FB901D8
:101EB0000E94790FA981BA81E981FA818281482F34
:101EC0008B81282F30E081E090E0022E02C0880F45
:101ED000991F0A94E2F7842B12968C93129781E053
:101EE0008C838C810F900F900F900F90CF91DF918A
:101EF0000895DF93CF9300D000D0CDB7DEB79A839B
:101F000089837C836B83E981FA818081883038F40E
:101F1000EB81FC8189E390E0918380834BC0E98170
:101F2000FA818081883098F0E981FA81808180315E
:101F300070F4E981FA8180818850E981FA81808397
:101F4000EB81FC8186E390E09183808333C0E9815B
:101F5000FA818081803198F0E981FA81808188312D
:101F600070F4E981FA8180818051E981FA8180836E
:101F7000EB81FC8183E390E0918380831BC0E98146
:101F8000FA8188E18083E981FA818081803270F46E
:101F9000E981FA8180818851E981FA818083EB812E
:101FA000FC8180E390E09183808304C0EB81FC811D
:101FB000118210820F900F900F900F90CF91DF91B0
:101FC0000895DF93CF9300D000D0CDB7DEB78B83D9
:101FD0008B8161E00E94C80D8A838B8160E00E9442
:101FE000200E89838A81813031F48981813019F40E
:101FF00081E08C8301C01C828C810F900F900F9028
:102000000F90CF91DF910895DF93CF9300D00F927F
:10201000CDB7DEB78A836B838B81813031F48A81BF
:1020200061E00E94200E898305C08A8160E00E94E1
:10203000200E898389810F900F900F90CF91DF91AF
:102040000895DF93CF9300D000D00F92CDB7DEB7C5
:102050008B836C838B8160E00E94C80D8A838A81A8
:102060008130B9F48C81813031F48B8161E00E9440
:10207000200E898305C08B8160E00E94200E898339
:102080008A81813031F48981813019F481E08D8336
:1020900001C01D828D810F900F900F900F900F90B7
:1020A000CF91DF910895DF93CF9300D0CDB7DEB706
:1020B0008A838A819E012F5F3F4FB9010E94780E6B
:1020C00089810F900F90CF91DF910895DF93CF9387
:1020D000CDB7DEB7A0970FB6F894DEBF0FBECDBF69
:1020E00081E08C8382E08B8383E08A8384E0898330
:1020F0001D8283E08E8381E08F8383E088878BE07D
:10210000FE013996DF01282F1D922A95E9F78BE011
:10211000FE017496DF01282F1D922A95E9F7CE0162
:1021200009960E944507CE0144960E9445078C817E
:102130000E94E10F8B810E94E10F8A810E94E10FD2
:1021400089810E94E10FCE0105960E94700BCE019D
:1021500007960E94700B86EE91E10E94B00C88EF0A
:1021600091E10E94C20C80917001A82FB0E0B8A349
:10217000AF8F2F8D38A12430310509F474C08F8DB5
:1021800098A1853091058CF4AF8DB8A1A230B1052E
:1021900081F12F8D38A1233031050CF043C08F8D94
:1021A00098A181309105A1F0D2C0AF8DB8A1A63021
:1021B000B10509F4A2C02F8D38A1263031050CF4E9
:1021C0007BC08F8D98A18730910509F4AFC0BFC047
:1021D0008C8161E00E940410CE0109960E94DE0805
:1021E0008C8160E00E940410CE0144960E94DE08BB
:1021F000BEC08C8161E00E9404108B8161E00E946E
:102200000410CE0109960E94DE088C8160E00E94D5
:1022100004108B8160E00E940410CE0144960E945D
:10222000DE08A5C08C8161E00E9404108B8161E012
:102230000E9404108A8161E00E940410CE01099678
:102240000E94DE088C8160E00E9404108B8160E0B7
:102250000E9404108A8160E00E940410CE0144961E
:102260000E94DE0884C08C8161E00E9404108B8192
:1022700061E00E9404108A8161E00E94041089815B
:1022800061E00E940410CE0109960E94DE088C8154
:1022900060E00E9404108B8160E00E9404108A813B
:1022A00060E00E940410898160E00E940410CE0169
:1022B00044960E94DE085BC08B8161E00E9404109E
:1022C0008A8161E00E940410898161E00E9404100B
:1022D000CE0109960E94DE088B8160E00E94041006
:1022E0008A8160E00E940410898160E00E940410ED
:1022F000CE0144960E94DE083AC08A8161E00E94C5
:102300000410898161E00E940410CE0109960E94A8
:10231000DE088A8160E00E940410898160E00E94EA
:102320000410CE0144960E94DE0821C0898161E03C
:102330000E940410CE0109960E94DE08898160E0A7
:102340000E940410CE0144960E94DE0810C08C81C9
:1023500060E00E9404108B8160E00E9404108A817A
:1023600060E00E940410898160E00E940410809166
:10237000680190916901CC01A0E0B0E0BC01CD0101
:102380000E94D704DC01CB0189879A87AB87BC8781
:1023900020916801309169018FEC93E0821B930BCF
:1023A000CC01A0E0B0E0BC01CD010E94D704DC016B
:1023B000CB018C8B9D8BAE8BBF8BCE0109960E947F
:1023C0004507CE0144960E944507CDCEDF93CF93BB
:1023D000CDB7DEB7809170018F5F809370018091DF
:1023E0007001883011F410927001CF91DF9108953F
:1023F000DF93CF9300D0CDB7DEB7809171018F5FAF
:102400008093710180917101282F30E03A832983F4
:1024100089819A818330910549F129813A8124305B
:1024200031055CF489819A818130910589F0298197
:102430003A812230310599F02EC089819A81843009
:102440009105D9F029813A8125303105E9F023C081
:1024500088EC90E0909369018093680122C08CE23F
:1024600091E090936901809368011BC080E991E03D
:10247000909369018093680114C084EF91E0909378
:102480006901809368010DC080E293E09093690137
:102490008093680106C084E690E090936901809380
:1024A000680180917101863011F4109271010F90D2
:1024B0000F90CF91DF9108952F923F924F925F92AC
:1024C0006F927F928F929F92AF92BF92CF92DF9244
:1024D000EF92FF920F931F93CF93DF93CDB7DEB7A9
:1024E000CA1BDB0B0FB6F894DEBF0FBECDBF09943D
:1024F0002A88398848885F846E847D848C849B8494
:10250000AA84B984C884DF80EE80FD800C811B81A1
:10251000AA81B981CE0FD11D0FB6F894DEBF0FBED0
:0A252000CDBFED010895F894FFCF40
:10252A000000000000000000000102020303030390
:10253A000404040404040404050505050505050549
:10254A000505050505050505060606060606060629
:10255A000606060606060606060606060606060611
:10256A0006060606060606060707070707070707F9
:10257A0007070707070707070707070707070707E1
:10258A0007070707070707070707070707070707D1
:10259A0007070707070707070707070707070707C1
:1025AA0007070707070707070808080808080808A9
:1025BA000808080808080808080808080808080891
:1025CA000808080808080808080808080808080881
:1025DA000808080808080808080808080808080871
:1025EA000808080808080808080808080808080861
:1025FA000808080808080808080808080808080851
:10260A000808080808080808080808080808080840
:10261A000808080808080808080808080808080830
:0A262A000808080808080808640002
:00000001FF
